:100000000C9434000C9451000C9451000C94510049
:100010000C9451000C9451000C9451000C9451001C
:100020000C9451000C9451000C9451000C9451000C
:100030000C9451000C9451000C9451000C945100FC
:100040000C9478000C9451000C9451000C945100C5
:100050000C9451000C9451000C9451000C945100DC
:100060000C9451000C94510011241FBECFEFD8E026
:10007000DEBFCDBF11E0A0E0B1E0EEEFF2E002C0E4
:1000800005900D92A230B107D9F721E0A2E0B1E0CE
:1000900001C01D92AD30B207E1F70E94C2000C947E
:1000A0007D010C9400003FB7F89480910701909176
:1000B0000801A0910901B0910A0126B5A89B05C0CD
:1000C0002F3F19F00196A11DB11D3FBFBA2FA92FD7
:1000D000982F8827BC01CD01620F711D811D911DD4
:1000E00042E0660F771F881F991F4A95D1F7089540
:1000F0001F920F920FB60F9211242F933F938F935D
:100100009F93AF93BF938091030190910401A091BD
:100110000501B09106013091020123E0230F2D3734
:1001200058F50196A11DB11D209302018093030192
:1001300090930401A0930501B093060180910701FB
:1001400090910801A0910901B0910A010196A11DA9
:10015000B11D8093070190930801A0930901B0930A
:100160000A01BF91AF919F918F913F912F910F9075
:100170000FBE0F901F90189526E8230F0296A11D21
:10018000B11DD2CF789484B5826084BD84B581607E
:1001900084BD85B5826085BD85B5816085BD809152
:1001A0006E00816080936E001092810080918100CA
:1001B00082608093810080918100816080938100C2
:1001C000809180008160809380008091B100846084
:1001D0008093B1008091B00081608093B0008091E5
:1001E0007A00846080937A0080917A0082608093A4
:1001F0007A0080917A00816080937A0080917A0001
:10020000806880937A001092C10010920C011092C5
:100210000B015C9A549AC0E0D0E0409100015C98D8
:1002200080910B0190910C018230910538F0880F7C
:10023000991F880F991F05970197F1F728E030E083
:10024000642F70E08BB140FF56C080618BB9AB0169
:100250005595479580910B0190910C018230910545
:1002600038F0880F991F880F991F05970197F1F7AC
:100270002150310929F75C9A80910B0190910C0172
:100280008230910538F0880F991F880F991F0597C4
:100290000197F1F75C9A0E9453004B015C0184EFD7
:1002A000C82EDD24D394E12CF12C0E945300681950
:1002B00079098A099B09683E734081059105A8F375
:1002C00021E0C21AD108E108F10888EE880E83E027
:1002D000981EA11CB11CC114D104E104F10429F73A
:1002E000809100018F5F80930001209709F495CFE2
:0E02F0000E94000092CF8F7EA9CFF894FFCF1E
:0202FE0061009D
:00000001FF
